:100000000C9462000C948A000C948A000C948A0070
:100010000C948A000C948A000C948A000C948A0038
:100020000C948A000C948A000C948A000C948A0028
:100030000C948A000C948A000C948A000C948A0018
:100040000C94A6020C948A000C9416030C94F002F3
:100050000C948A000C948A000C948A000C948A00F8
:100060000C948A000C948A000000000025002800EF
:100070002B0000000000240027002A0000000000E0
:1000800023002600290004040404040404040202DA
:100090000202020203030303030301020408102007
:1000A0004080010204081020010204081020000012
:1000B0000008000201000003040700000000000027
:1000C0000000480311241FBECFEFD8E0DEBFCDBF34
:1000D00011E0A0E0B1E0E8EAF9E002C005900D927D
:1000E000A831B107D9F722E0A8E1B1E001C01D9223
:1000F000A730B207E1F710E0C2E6D0E004C02197D4
:10010000FE010E94C704C136D107C9F70E94C0038F
:100110000C94D2040C94000090E0FC01E255FF4FD7
:100120002491FC01E656FF4F3491FC01EA57FF4F42
:10013000E491EE23B9F1222339F1233091F038F420
:100140002130A9F0223001F584B58F7D12C027300F
:1001500091F02830A1F02430B9F4809180008F7D97
:1001600003C0809180008F77809380000DC084B59C
:100170008F7784BD09C08091B0008F7703C08091D4
:10018000B0008F7D8093B000F0E0EE0FFF1FE458C9
:10019000FF4FA591B491EC913E2381E090E021F4D2
:1001A00080E0089580E090E00895CF93DF9390E0A1
:1001B000FC01E656FF4F2491FC01EA57FF4F849162
:1001C000882361F190E0880F991FFC01EE58FF4FE2
:1001D000C591D491FC01E859FF4FA591B4916111EB
:1001E00009C09FB7F8948881209582238883EC9179
:1001F0002E230BC0623061F49FB7F8943881822FB0
:10020000809583238883EC912E2B2C939FBF06C06F
:100210008FB7F894E8812E2B28838FBFDF91CF9181
:100220000895FC01538D448D252F30E0842F90E0FC
:10023000821B930B541710F0CF96089501970895E1
:10024000FC01918D828D981761F0828DDF01A80FDE
:10025000B11D5D968C91928D9F5F9F73928F90E000
:1002600008958FEF9FEF0895FC01918D828D98176F
:1002700031F0828DE80FF11D858D90E008958FEFAC
:100280009FEF0895FC01918D228D892F90E0805C75
:100290009F4F821B91098F739927089587E291E000
:1002A0000E94420121E0892B09F420E0822F089569
:1002B000FC01848DDF01A80FB11DA35ABF4F2C9103
:1002C000848D90E001968F739927848FA689B789D2
:1002D0002C93A089B1898C9180648C93938D848DAB
:1002E000981306C00288F389E02D80818F7D80837A
:1002F0000895EF92FF920F931F93CF93DF93EC013A
:1003000081E0888F9B8D8C8D981305C0E889F989D1
:10031000808185FD24C0F62E0B8D10E00F5F1F4FEE
:100320000F731127E02E8C8DE8120CC00FB607FC5E
:10033000FACFE889F989808185FFF5CFCE010E9447
:100340005801F1CF8B8DFE01E80FF11DE35AFF4FED
:10035000F0820B8FEA89FB898081806207C0EE8979
:10036000FF896083E889F98980818064808381E0E6
:1003700090E0DF91CF911F910F91FF90EF90089542
:10038000CF93DF93EC01888D8823C9F0EA89FB893C
:10039000808185FD05C0A889B9898C9186FD0FC033
:1003A0000FB607FCF5CF808185FFF2CFA889B98908
:1003B0008C9185FFEDCFCE010E945801E7CFDF91F0
:1003C000CF91089580E090E0892B29F00E944E01A2
:1003D00081110C9400000895CF92DF92EF92FF926A
:1003E0000F931F93CF93DF936C017A018B01C0E0D1
:1003F000D0E0CE15DF0589F0D8016D918D01D601D1
:10040000ED91FC910190F081E02DC6010995892BB9
:1004100011F47E0102C02196ECCFC701DF91CF918C
:100420001F910F91FF90EF90DF90CF900895089566
:1004300080E090E00895009769F0FC0101900020B1
:10044000E9F73197AF01481B590BBC0187E291E0F6
:100450000C94EC0180E090E008958F929F92AF920F
:10046000BF920F931F93CF93DF93CDB7DEB7A197C2
:100470000FB6F894DEBF0FBECDBF19A2423008F40C
:100480004AE08E010F5D1F4F842E912CA12CB12CC0
:10049000A50194010E94A504E62FB901CA010150EB
:1004A0001109EA3014F4E05D01C0E95CD801EC9375
:1004B000232B242B252B61F7C8010E941B02A19638
:1004C0000FB6F894DEBF0FBECDBFDF91CF911F9165
:1004D0000F91BF90AF909F908F900895CF92DF9231
:1004E000EF92FF92CF93DF936C01990FEE08FF0814
:1004F000F7FE1FC0E0912701F09128010190F081E3
:10050000E02D6DE287E291E00995EC0166277727FF
:10051000CB016C197D098E099F094AE00E942D02CA
:100520008C0F9D1FDF91CF91FF90EF90DF90CF90C8
:1005300008954AE0C701B601DF91CF91FF90EF9097
:10054000DF90CF900C942D020E94CD041F920F9249
:100550000FB60F9211242F933F938F939F93AF93D6
:10056000BF938091230190912401A0912501B09126
:1005700026013091220123E0230F2D3720F401962C
:10058000A11DB11D05C026E8230F0296A11DB11DB6
:10059000209322018093230190932401A0932501AD
:1005A000B093260180911E0190911F01A09120011E
:1005B000B09121010196A11DB11D80931E01909360
:1005C0001F01A0932001B0932101BF91AF919F9192
:1005D0008F913F912F910F900FBE0F901F90189504
:1005E0001F920F920FB60F9211242F933F934F93A8
:1005F0005F936F937F938F939F93AF93BF93EF938B
:10060000FF9387E291E00E945801FF91EF91BF9123
:10061000AF919F918F917F916F915F914F913F919A
:100620002F910F900FBE0F901F9018951F920F9251
:100630000FB60F9211242F938F939F93EF93FF93F5
:10064000E0913701F09138018081E0913D01F09116
:100650003E0182FD12C09081809140018F5F8F73B7
:1006600020914101821751F0E0914001F0E0E95DF5
:10067000FE4F958F8093400101C08081FF91EF91E3
:100680009F918F912F910F900FBE0F901F901895F3
:10069000E7E2F1E01382128288EE93E0A0E0B0E09E
:1006A00084839583A683B78384E091E091838083DC
:1006B00085EC90E09587848784EC90E09787868727
:1006C00080EC90E0918B808B81EC90E0938B828B1F
:1006D00082EC90E0958B848B86EC90E0978B868BF8
:1006E000118E128E138E148EE4ECF1E015821482BA
:1006F000168213861486158616861786108A118A26
:10070000128A148A138A158A168A81E090E0908FE3
:10071000878B118E128E138E148E158E168E178E59
:1007200010A212A211A213A214A296A385A317A22B
:1007300010A611A612A613A614A615A616A610AAF0
:1007400017A611AA12AA94AB83AB15AA16AA17AAC8
:1007500010AE11AE12AE13AE14AE10920202109291
:1007600001021092030210920402909306028093F9
:1007700005028DE090E09183808361E00C94D500C8
:10078000789484B5826084BD84B5816084BD85B56C
:10079000826085BD85B5816085BD80916E00816078
:1007A00080936E001092810080918100826080931E
:1007B0008100809181008160809381008091800020
:1007C0008160809380008091B10084608093B1004B
:1007D0008091B00081608093B00080917A00846045
:1007E00080937A0080917A00826080937A00809171
:1007F0007A00816080937A0080917A00806880938B
:100800007A001092C10061E08DE00E94D50060E0A6
:1008100082E00E94D50060E083E00E94D50060E0A5
:1008200084E00E94D500E0913701F091380182E028
:100830008083E0913301F09134011082E091350121
:10084000F09136018FEC808310923F01E0913B01E3
:10085000F0913C0186E08083E0913901F0913A010A
:10086000808180618083E0913901F0913A0180813B
:1008700088608083E0913901F0913A01808180683D
:100880008083E0913901F0913A0180818F7D8083EE
:1008900081E08093CA011092C7011092C60148EC12
:1008A00050E060E070E04093DD015093DE01609322
:1008B000DF017093E0014093F9015093FA016093D6
:1008C000FB017093FC011092CC018093CB0182E07C
:1008D0000E948C00909319018093180183E00E947C
:1008E0008C0090931D0180931C0184E00E948C0079
:1008F00090931B0180931A012FB7F8946091230104
:100900007091240180912501909126012FBF4AE02A
:100910000E942D0282E191E00E941B0280911C0145
:1009200090911D010E946E0282E191E00E941B02E3
:1009300080911A0190911B010E946E0284E191E066
:100940000E941B020E94E201C2CFA1E21A2EAA1B42
:10095000BB1BFD010DC0AA1FBB1FEE1FFF1FA2176F
:10096000B307E407F50720F0A21BB30BE40BF50B6C
:10097000661F771F881F991F1A9469F760957095F5
:10098000809590959B01AC01BD01CF010895EE0FBC
:10099000FF1F0590F491E02D099481E090E0F89418
:0809A0000C94D204F894FFCF7F
:1009A800000000007901EC011101C00142012001A1
:0809B800340120000D0A0000CB
:00000001FF
